{
  "_format": "hh-sol-artifact-1",
  "contractName": "EducationalPlatform",
  "sourceName": "contracts/Education.sol",
  "abi": [
    {
      "inputs": [],
      "stateMutability": "nonpayable",
      "type": "constructor"
    },
    {
      "inputs": [],
      "name": "AccessControlBadConfirmation",
      "type": "error"
    },
    {
      "inputs": [
        {
          "internalType": "address",
          "name": "account",
          "type": "address"
        },
        {
          "internalType": "bytes32",
          "name": "neededRole",
          "type": "bytes32"
        }
      ],
      "name": "AccessControlUnauthorizedAccount",
      "type": "error"
    },
    {
      "anonymous": false,
      "inputs": [
        {
          "indexed": true,
          "internalType": "address",
          "name": "student",
          "type": "address"
        },
        {
          "indexed": true,
          "internalType": "uint256",
          "name": "courseId",
          "type": "uint256"
        },
        {
          "indexed": false,
          "internalType": "string",
          "name": "assignmentURL",
          "type": "string"
        }
      ],
      "name": "AssignmentSubmitted",
      "type": "event"
    },
    {
      "anonymous": false,
      "inputs": [
        {
          "indexed": false,
          "internalType": "address",
          "name": "student",
          "type": "address"
        },
        {
          "indexed": false,
          "internalType": "uint256",
          "name": "courseId",
          "type": "uint256"
        },
        {
          "indexed": false,
          "internalType": "uint256",
          "name": "courseReward",
          "type": "uint256"
        }
      ],
      "name": "CourseCompleted",
      "type": "event"
    },
    {
      "anonymous": false,
      "inputs": [
        {
          "indexed": false,
          "internalType": "address",
          "name": "student",
          "type": "address"
        },
        {
          "indexed": false,
          "internalType": "uint256",
          "name": "courseId",
          "type": "uint256"
        },
        {
          "indexed": false,
          "internalType": "uint256",
          "name": "rewardEarned",
          "type": "uint256"
        }
      ],
      "name": "CourseEnrolled",
      "type": "event"
    },
    {
      "anonymous": false,
      "inputs": [
        {
          "indexed": true,
          "internalType": "uint256",
          "name": "courseId",
          "type": "uint256"
        },
        {
          "indexed": false,
          "internalType": "string",
          "name": "title",
          "type": "string"
        },
        {
          "indexed": false,
          "internalType": "string",
          "name": "courseURL",
          "type": "string"
        },
        {
          "indexed": false,
          "internalType": "string",
          "name": "submitLink",
          "type": "string"
        },
        {
          "indexed": false,
          "internalType": "uint256",
          "name": "credit",
          "type": "uint256"
        },
        {
          "indexed": false,
          "internalType": "uint256",
          "name": "reward",
          "type": "uint256"
        },
        {
          "indexed": false,
          "internalType": "bool",
          "name": "",
          "type": "bool"
        }
      ],
      "name": "CreateCourse",
      "type": "event"
    },
    {
      "anonymous": false,
      "inputs": [
        {
          "indexed": true,
          "internalType": "bytes32",
          "name": "role",
          "type": "bytes32"
        },
        {
          "indexed": true,
          "internalType": "bytes32",
          "name": "previousAdminRole",
          "type": "bytes32"
        },
        {
          "indexed": true,
          "internalType": "bytes32",
          "name": "newAdminRole",
          "type": "bytes32"
        }
      ],
      "name": "RoleAdminChanged",
      "type": "event"
    },
    {
      "anonymous": false,
      "inputs": [
        {
          "indexed": true,
          "internalType": "bytes32",
          "name": "role",
          "type": "bytes32"
        },
        {
          "indexed": true,
          "internalType": "address",
          "name": "account",
          "type": "address"
        },
        {
          "indexed": true,
          "internalType": "address",
          "name": "sender",
          "type": "address"
        }
      ],
      "name": "RoleGranted",
      "type": "event"
    },
    {
      "anonymous": false,
      "inputs": [
        {
          "indexed": true,
          "internalType": "bytes32",
          "name": "role",
          "type": "bytes32"
        },
        {
          "indexed": true,
          "internalType": "address",
          "name": "account",
          "type": "address"
        },
        {
          "indexed": true,
          "internalType": "address",
          "name": "sender",
          "type": "address"
        }
      ],
      "name": "RoleRevoked",
      "type": "event"
    },
    {
      "inputs": [],
      "name": "ADMIN_ROLE",
      "outputs": [
        {
          "internalType": "bytes32",
          "name": "",
          "type": "bytes32"
        }
      ],
      "stateMutability": "view",
      "type": "function"
    },
    {
      "inputs": [],
      "name": "DEFAULT_ADMIN_ROLE",
      "outputs": [
        {
          "internalType": "bytes32",
          "name": "",
          "type": "bytes32"
        }
      ],
      "stateMutability": "view",
      "type": "function"
    },
    {
      "inputs": [],
      "name": "STUDENT_ROLE",
      "outputs": [
        {
          "internalType": "bytes32",
          "name": "",
          "type": "bytes32"
        }
      ],
      "stateMutability": "view",
      "type": "function"
    },
    {
      "inputs": [
        {
          "internalType": "uint256",
          "name": "_courseId",
          "type": "uint256"
        }
      ],
      "name": "completedCourse",
      "outputs": [],
      "stateMutability": "nonpayable",
      "type": "function"
    },
    {
      "inputs": [
        {
          "internalType": "uint256",
          "name": "",
          "type": "uint256"
        },
        {
          "internalType": "uint256",
          "name": "",
          "type": "uint256"
        }
      ],
      "name": "courseEnrollments",
      "outputs": [
        {
          "internalType": "address",
          "name": "",
          "type": "address"
        }
      ],
      "stateMutability": "view",
      "type": "function"
    },
    {
      "inputs": [
        {
          "internalType": "uint256",
          "name": "",
          "type": "uint256"
        }
      ],
      "name": "courses",
      "outputs": [
        {
          "internalType": "string",
          "name": "title",
          "type": "string"
        },
        {
          "internalType": "string",
          "name": "courseURL",
          "type": "string"
        },
        {
          "internalType": "string",
          "name": "SubmitLink",
          "type": "string"
        },
        {
          "internalType": "uint256",
          "name": "rewards",
          "type": "uint256"
        },
        {
          "internalType": "uint256",
          "name": "credits",
          "type": "uint256"
        },
        {
          "internalType": "bool",
          "name": "isCompleted",
          "type": "bool"
        },
        {
          "internalType": "enum EducationalPlatform.EnrollStatus",
          "name": "enrollSatus",
          "type": "uint8"
        }
      ],
      "stateMutability": "view",
      "type": "function"
    },
    {
      "inputs": [
        {
          "internalType": "string",
          "name": "_title",
          "type": "string"
        },
        {
          "internalType": "string",
          "name": "_courseURL",
          "type": "string"
        },
        {
          "internalType": "uint256",
          "name": "_credits",
          "type": "uint256"
        },
        {
          "internalType": "uint256",
          "name": "_reward",
          "type": "uint256"
        }
      ],
      "name": "createCourse",
      "outputs": [],
      "stateMutability": "nonpayable",
      "type": "function"
    },
    {
      "inputs": [
        {
          "internalType": "uint256",
          "name": "_courseId",
          "type": "uint256"
        }
      ],
      "name": "enrollCourse",
      "outputs": [],
      "stateMutability": "nonpayable",
      "type": "function"
    },
    {
      "inputs": [
        {
          "internalType": "address",
          "name": "",
          "type": "address"
        }
      ],
      "name": "enrolledStudents",
      "outputs": [
        {
          "internalType": "bool",
          "name": "",
          "type": "bool"
        }
      ],
      "stateMutability": "view",
      "type": "function"
    },
    {
      "inputs": [
        {
          "internalType": "uint256",
          "name": "_courseId",
          "type": "uint256"
        }
      ],
      "name": "getCourseSubmissions",
      "outputs": [
        {
          "internalType": "string[]",
          "name": "",
          "type": "string[]"
        }
      ],
      "stateMutability": "view",
      "type": "function"
    },
    {
      "inputs": [
        {
          "internalType": "uint256",
          "name": "_index",
          "type": "uint256"
        }
      ],
      "name": "getCoursesDetails",
      "outputs": [
        {
          "internalType": "string",
          "name": "",
          "type": "string"
        },
        {
          "internalType": "string",
          "name": "",
          "type": "string"
        },
        {
          "internalType": "string",
          "name": "",
          "type": "string"
        },
        {
          "internalType": "uint256",
          "name": "",
          "type": "uint256"
        },
        {
          "internalType": "uint256",
          "name": "",
          "type": "uint256"
        },
        {
          "internalType": "bool",
          "name": "",
          "type": "bool"
        }
      ],
      "stateMutability": "view",
      "type": "function"
    },
    {
      "inputs": [
        {
          "internalType": "uint256",
          "name": "_courseId",
          "type": "uint256"
        }
      ],
      "name": "getEnrolledStudentsForCourse",
      "outputs": [
        {
          "internalType": "address[]",
          "name": "",
          "type": "address[]"
        }
      ],
      "stateMutability": "view",
      "type": "function"
    },
    {
      "inputs": [
        {
          "internalType": "bytes32",
          "name": "role",
          "type": "bytes32"
        }
      ],
      "name": "getRoleAdmin",
      "outputs": [
        {
          "internalType": "bytes32",
          "name": "",
          "type": "bytes32"
        }
      ],
      "stateMutability": "view",
      "type": "function"
    },
    {
      "inputs": [],
      "name": "getStudentCredits",
      "outputs": [
        {
          "internalType": "uint256",
          "name": "",
          "type": "uint256"
        }
      ],
      "stateMutability": "view",
      "type": "function"
    },
    {
      "inputs": [
        {
          "internalType": "bytes32",
          "name": "role",
          "type": "bytes32"
        },
        {
          "internalType": "address",
          "name": "account",
          "type": "address"
        }
      ],
      "name": "grantRole",
      "outputs": [],
      "stateMutability": "nonpayable",
      "type": "function"
    },
    {
      "inputs": [
        {
          "internalType": "bytes32",
          "name": "role",
          "type": "bytes32"
        },
        {
          "internalType": "address",
          "name": "account",
          "type": "address"
        }
      ],
      "name": "hasRole",
      "outputs": [
        {
          "internalType": "bool",
          "name": "",
          "type": "bool"
        }
      ],
      "stateMutability": "view",
      "type": "function"
    },
    {
      "inputs": [],
      "name": "owner",
      "outputs": [
        {
          "internalType": "address",
          "name": "",
          "type": "address"
        }
      ],
      "stateMutability": "view",
      "type": "function"
    },
    {
      "inputs": [
        {
          "internalType": "bytes32",
          "name": "role",
          "type": "bytes32"
        },
        {
          "internalType": "address",
          "name": "callerConfirmation",
          "type": "address"
        }
      ],
      "name": "renounceRole",
      "outputs": [],
      "stateMutability": "nonpayable",
      "type": "function"
    },
    {
      "inputs": [
        {
          "internalType": "bytes32",
          "name": "role",
          "type": "bytes32"
        },
        {
          "internalType": "address",
          "name": "account",
          "type": "address"
        }
      ],
      "name": "revokeRole",
      "outputs": [],
      "stateMutability": "nonpayable",
      "type": "function"
    },
    {
      "inputs": [
        {
          "internalType": "address",
          "name": "",
          "type": "address"
        }
      ],
      "name": "studentRewards",
      "outputs": [
        {
          "internalType": "uint256",
          "name": "",
          "type": "uint256"
        }
      ],
      "stateMutability": "view",
      "type": "function"
    },
    {
      "inputs": [
        {
          "internalType": "uint256",
          "name": "_courseId",
          "type": "uint256"
        },
        {
          "internalType": "string",
          "name": "_assignmentURL",
          "type": "string"
        }
      ],
      "name": "submitAssignment",
      "outputs": [],
      "stateMutability": "nonpayable",
      "type": "function"
    },
    {
      "inputs": [
        {
          "internalType": "uint256",
          "name": "_courseId",
          "type": "uint256"
        },
        {
          "internalType": "string",
          "name": "_assignmentURL",
          "type": "string"
        }
      ],
      "name": "submitAssignments",
      "outputs": [],
      "stateMutability": "nonpayable",
      "type": "function"
    },
    {
      "inputs": [
        {
          "internalType": "bytes4",
          "name": "interfaceId",
          "type": "bytes4"
        }
      ],
      "name": "supportsInterface",
      "outputs": [
        {
          "internalType": "bool",
          "name": "",
          "type": "bool"
        }
      ],
      "stateMutability": "view",
      "type": "function"
    },
    {
      "inputs": [],
      "name": "totalCourses",
      "outputs": [
        {
          "internalType": "uint256",
          "name": "",
          "type": "uint256"
        }
      ],
      "stateMutability": "view",
      "type": "function"
    },
    {
      "inputs": [],
      "name": "totalStudents",
      "outputs": [
        {
          "internalType": "uint256",
          "name": "",
          "type": "uint256"
        }
      ],
      "stateMutability": "view",
      "type": "function"
    }
  ],
  "bytecode": "0x60806040523480156200001157600080fd5b50620000477f36a5c4aaacb6b388bbd448bf11096b7dafc5652bcc9046084fd0e95b1fb0b2cc6000801b6200008060201b60201c565b620000797fa49807205ce4d355092ef5a8a18f56e8913cf4a201fbe287825b095693c2177533620000e360201b60201c565b5062000277565b60006200009383620001e660201b60201c565b905081600080858152602001908152602001600020600101819055508181847fbd79b86ffe0ab8e8776151514217cd7cacd52c909f66475c3af44e129f0b00ff60405160405180910390a4505050565b6000620000f783836200020560201b60201c565b620001db57600160008085815260200190815260200160002060000160008473ffffffffffffffffffffffffffffffffffffffff1673ffffffffffffffffffffffffffffffffffffffff16815260200190815260200160002060006101000a81548160ff021916908315150217905550620001776200026f60201b60201c565b73ffffffffffffffffffffffffffffffffffffffff168273ffffffffffffffffffffffffffffffffffffffff16847f2f8788117e7eff1d82e926ec794901d17c78024a50270940304540a733656f0d60405160405180910390a460019050620001e0565b600090505b92915050565b6000806000838152602001908152602001600020600101549050919050565b600080600084815260200190815260200160002060000160008373ffffffffffffffffffffffffffffffffffffffff1673ffffffffffffffffffffffffffffffffffffffff16815260200190815260200160002060009054906101000a900460ff16905092915050565b600033905090565b612b4d80620002876000396000f3fe608060405234801561001057600080fd5b50600436106101735760003560e01c806375b238fc116100de578063a0ee1eae11610097578063d547741f11610071578063d547741f1461048f578063d63d8385146104ab578063e332addf146104db578063f7be43fb146104f757610173565b8063a0ee1eae14610420578063a217fddf14610455578063d4c4ecfa1461047357610173565b806375b238fc1461034257806387ac1860146103605780638da5cb5b1461037e57806391d148541461039c57806396f979d2146103cc5780639852bf8e1461040257610173565b80633a0b50a2116101305780633a0b50a21461024a5780633be719c1146102665780633dbd0e0c146102965780635c9a9ce5146102b257806369154310146102e2578063729d1dcb1461031257610173565b806301ffc9a7146101785780630a8be7de146101a8578063248a9ca3146101c65780632f2ff15d146101f65780633503c3561461021257806336568abe1461022e575b600080fd5b610192600480360381019061018d9190611b84565b610515565b60405161019f9190611bcc565b60405180910390f35b6101b061058f565b6040516101bd9190611c00565b60405180910390f35b6101e060048036038101906101db9190611c51565b6105d6565b6040516101ed9190611c8d565b60405180910390f35b610210600480360381019061020b9190611d06565b6105f5565b005b61022c60048036038101906102279190611eb8565b610617565b005b61024860048036038101906102439190611d06565b6107ab565b005b610264600480360381019061025f9190611f14565b610826565b005b610280600480360381019061027b9190611f41565b610a3a565b60405161028d9190611f90565b60405180910390f35b6102b060048036038101906102ab9190611f14565b610a88565b005b6102cc60048036038101906102c79190611f14565b610cee565b6040516102d991906120ec565b60405180910390f35b6102fc60048036038101906102f7919061210e565b610fd1565b6040516103099190611c00565b60405180910390f35b61032c6004803603810190610327919061210e565b610fe9565b6040516103399190611bcc565b60405180910390f35b61034a611009565b6040516103579190611c8d565b60405180910390f35b61036861102d565b6040516103759190611c00565b60405180910390f35b610386611033565b6040516103939190611f90565b60405180910390f35b6103b660048036038101906103b19190611d06565b611059565b6040516103c39190611bcc565b60405180910390f35b6103e660048036038101906103e19190611f14565b6110c3565b6040516103f997969594939291906121fc565b60405180910390f35b61040a6112b7565b6040516104179190611c00565b60405180910390f35b61043a60048036038101906104359190611f14565b6112bd565b60405161044c96959493929190612280565b60405180910390f35b61045d6114bf565b60405161046a9190611c8d565b60405180910390f35b61048d600480360381019061048891906122f6565b6114c6565b005b6104a960048036038101906104a49190611d06565b61158e565b005b6104c560048036038101906104c09190611f14565b6115b0565b6040516104d29190612453565b60405180910390f35b6104f560048036038101906104f09190611eb8565b611651565b005b6104ff61183a565b60405161050c9190611c8d565b60405180910390f35b60007f7965db0b000000000000000000000000000000000000000000000000000000007bffffffffffffffffffffffffffffffffffffffffffffffffffffffff1916827bffffffffffffffffffffffffffffffffffffffffffffffffffffffff1916148061058857506105878261185e565b5b9050919050565b6000600460003373ffffffffffffffffffffffffffffffffffffffff1673ffffffffffffffffffffffffffffffffffffffff16815260200190815260200160002054905090565b6000806000838152602001908152602001600020600101549050919050565b6105fe826105d6565b610607816118c8565b61061183836118dc565b50505050565b600560003373ffffffffffffffffffffffffffffffffffffffff1673ffffffffffffffffffffffffffffffffffffffff16815260200190815260200160002060009054906101000a900460ff166106a3576040517f08c379a000000000000000000000000000000000000000000000000000000000815260040161069a906124e7565b60405180910390fd5b60025482111580156106b55750600082115b6106f4576040517f08c379a00000000000000000000000000000000000000000000000000000000081526004016106eb90612553565b60405180910390fd5b6006600083815260200190815260200160002060050160009054906101000a900460ff1615610758576040517f08c379a000000000000000000000000000000000000000000000000000000000815260040161074f906125bf565b60405180910390fd5b813373ffffffffffffffffffffffffffffffffffffffff167fe833507235e60a3e7412a6c4162edce38118df58ebb6e26b3f03196a558ba2bf8360405161079f91906125df565b60405180910390a35050565b6107b36119cd565b73ffffffffffffffffffffffffffffffffffffffff168173ffffffffffffffffffffffffffffffffffffffff1614610817576040517f6697b23200000000000000000000000000000000000000000000000000000000815260040160405180910390fd5b61082182826119d5565b505050565b600560003373ffffffffffffffffffffffffffffffffffffffff1673ffffffffffffffffffffffffffffffffffffffff16815260200190815260200160002060009054906101000a900460ff166108b2576040517f08c379a00000000000000000000000000000000000000000000000000000000081526004016108a9906124e7565b60405180910390fd5b6002548111156108f7576040517f08c379a00000000000000000000000000000000000000000000000000000000081526004016108ee90612553565b60405180910390fd5b6006600082815260200190815260200160002060050160009054906101000a900460ff161561095b576040517f08c379a0000000000000000000000000000000000000000000000000000000008152600401610952906125bf565b60405180910390fd5b60006006600083815260200190815260200160002060030154905080600460003373ffffffffffffffffffffffffffffffffffffffff1673ffffffffffffffffffffffffffffffffffffffff16815260200190815260200160002060008282546109c59190612630565b9250508190555060016006600084815260200190815260200160002060050160006101000a81548160ff0219169083151502179055507f69598479254610bc37273ec300171cd231505beb1ee68d360cbd78c1bd818278338383604051610a2e93929190612664565b60405180910390a15050565b60076020528160005260406000208181548110610a5657600080fd5b906000526020600020016000915091509054906101000a900473ffffffffffffffffffffffffffffffffffffffff1681565b600560003373ffffffffffffffffffffffffffffffffffffffff1673ffffffffffffffffffffffffffffffffffffffff16815260200190815260200160002060009054906101000a900460ff1615610b15576040517f08c379a0000000000000000000000000000000000000000000000000000000008152600401610b0c9061270d565b60405180910390fd5b600254811115610b5a576040517f08c379a0000000000000000000000000000000000000000000000000000000008152600401610b5190612779565b60405180910390fd5b6001600560003373ffffffffffffffffffffffffffffffffffffffff1673ffffffffffffffffffffffffffffffffffffffff16815260200190815260200160002060006101000a81548160ff02191690831515021790555060036000815480929190610bc590612799565b919050555060006006600083815260200190815260200160002060040154905080600460003373ffffffffffffffffffffffffffffffffffffffff1673ffffffffffffffffffffffffffffffffffffffff1681526020019081526020016000206000828254610c349190612630565b9250508190555060076000838152602001908152602001600020339080600181540180825580915050600190039060005260206000200160009091909190916101000a81548173ffffffffffffffffffffffffffffffffffffffff021916908373ffffffffffffffffffffffffffffffffffffffff1602179055507fb975c93c50aa94d9c86dd9fb379701dc0bdc2aa1c503bf46d9cf4f313e0f47fc338383604051610ce293929190612664565b60405180910390a15050565b6060600254821115610d35576040517f08c379a0000000000000000000000000000000000000000000000000000000008152600401610d2c90612553565b60405180910390fd5b6000600660008481526020019081526020016000209050600060076000858152602001908152602001600020805480602002602001604051908101604052809291908181526020018280548015610de157602002820191906000526020600020905b8160009054906101000a900473ffffffffffffffffffffffffffffffffffffffff1673ffffffffffffffffffffffffffffffffffffffff1681526020019060010190808311610d97575b505050505090506000815167ffffffffffffffff811115610e0557610e04611d8d565b5b604051908082528060200260200182016040528015610e3857816020015b6060815260200190600190039081610e235790505b50905060005b8251811015610fc5576000846006016000858481518110610e6257610e616127e1565b5b602002602001015173ffffffffffffffffffffffffffffffffffffffff1673ffffffffffffffffffffffffffffffffffffffff1681526020019081526020016000208054610eaf9061283f565b80601f0160208091040260200160405190810160405280929190818152602001828054610edb9061283f565b8015610f285780601f10610efd57610100808354040283529160200191610f28565b820191906000526020600020905b815481529060010190602001808311610f0b57829003601f168201915b505050505090506000815103610f91576040518060400160405280600d81526020017f4e6f207375626d697373696f6e00000000000000000000000000000000000000815250838381518110610f8157610f806127e1565b5b6020026020010181905250610fb1565b80838381518110610fa557610fa46127e1565b5b60200260200101819052505b508080610fbd90612799565b915050610e3e565b50809350505050919050565b60046020528060005260406000206000915090505481565b60056020528060005260406000206000915054906101000a900460ff1681565b7fa49807205ce4d355092ef5a8a18f56e8913cf4a201fbe287825b095693c2177581565b60025481565b600160009054906101000a900473ffffffffffffffffffffffffffffffffffffffff1681565b600080600084815260200190815260200160002060000160008373ffffffffffffffffffffffffffffffffffffffff1673ffffffffffffffffffffffffffffffffffffffff16815260200190815260200160002060009054906101000a900460ff16905092915050565b60066020528060005260406000206000915090508060000180546110e69061283f565b80601f01602080910402602001604051908101604052809291908181526020018280546111129061283f565b801561115f5780601f106111345761010080835404028352916020019161115f565b820191906000526020600020905b81548152906001019060200180831161114257829003601f168201915b5050505050908060010180546111749061283f565b80601f01602080910402602001604051908101604052809291908181526020018280546111a09061283f565b80156111ed5780601f106111c2576101008083540402835291602001916111ed565b820191906000526020600020905b8154815290600101906020018083116111d057829003601f168201915b5050505050908060020180546112029061283f565b80601f016020809104026020016040519081016040528092919081815260200182805461122e9061283f565b801561127b5780601f106112505761010080835404028352916020019161127b565b820191906000526020600020905b81548152906001019060200180831161125e57829003601f168201915b5050505050908060030154908060040154908060050160009054906101000a900460ff16908060050160019054906101000a900460ff16905087565b60035481565b6060806060600080600080600660008981526020019081526020016000209050806000018160010182600201836003015484600401548560050160009054906101000a900460ff168580546113119061283f565b80601f016020809104026020016040519081016040528092919081815260200182805461133d9061283f565b801561138a5780601f1061135f5761010080835404028352916020019161138a565b820191906000526020600020905b81548152906001019060200180831161136d57829003601f168201915b5050505050955084805461139d9061283f565b80601f01602080910402602001604051908101604052809291908181526020018280546113c99061283f565b80156114165780601f106113eb57610100808354040283529160200191611416565b820191906000526020600020905b8154815290600101906020018083116113f957829003601f168201915b505050505094508380546114299061283f565b80601f01602080910402602001604051908101604052809291908181526020018280546114559061283f565b80156114a25780601f10611477576101008083540402835291602001916114a2565b820191906000526020600020905b81548152906001019060200180831161148557829003601f168201915b505050505093509650965096509650965096505091939550919395565b6000801b81565b600060405180602001604052806000815250905060006006600060025481526020019081526020016000209050848160010190816115049190612a1c565b50858160000190816115169190612a1c565b508381600401819055508281600301819055506002600081548092919061153c90612799565b91905055506002547fd3b22a39dead2483ee2d3a077af93e2acd13b13a60009d178b4df37d09a27a3f8787858888600060405161157e96959493929190612280565b60405180910390a2505050505050565b611597826105d6565b6115a0816118c8565b6115aa83836119d5565b50505050565b60606007600083815260200190815260200160002080548060200260200160405190810160405280929190818152602001828054801561164557602002820191906000526020600020905b8160009054906101000a900473ffffffffffffffffffffffffffffffffffffffff1673ffffffffffffffffffffffffffffffffffffffff16815260200190600101908083116115fb575b50505050509050919050565b600560003373ffffffffffffffffffffffffffffffffffffffff1673ffffffffffffffffffffffffffffffffffffffff16815260200190815260200160002060009054906101000a900460ff166116dd576040517f08c379a00000000000000000000000000000000000000000000000000000000081526004016116d4906124e7565b60405180910390fd5b600254821115611722576040517f08c379a000000000000000000000000000000000000000000000000000000000815260040161171990612553565b60405180910390fd5b6006600083815260200190815260200160002060050160009054906101000a900460ff1615611786576040517f08c379a000000000000000000000000000000000000000000000000000000000815260040161177d906125bf565b60405180910390fd5b806006600084815260200190815260200160002060060160003373ffffffffffffffffffffffffffffffffffffffff1673ffffffffffffffffffffffffffffffffffffffff16815260200190815260200160002090816117e69190612a1c565b50813373ffffffffffffffffffffffffffffffffffffffff167fe833507235e60a3e7412a6c4162edce38118df58ebb6e26b3f03196a558ba2bf8360405161182e91906125df565b60405180910390a35050565b7f36a5c4aaacb6b388bbd448bf11096b7dafc5652bcc9046084fd0e95b1fb0b2cc81565b60007f01ffc9a7000000000000000000000000000000000000000000000000000000007bffffffffffffffffffffffffffffffffffffffffffffffffffffffff1916827bffffffffffffffffffffffffffffffffffffffffffffffffffffffff1916149050919050565b6118d9816118d46119cd565b611ac7565b50565b60006118e88383611059565b6119c257600160008085815260200190815260200160002060000160008473ffffffffffffffffffffffffffffffffffffffff1673ffffffffffffffffffffffffffffffffffffffff16815260200190815260200160002060006101000a81548160ff02191690831515021790555061195f6119cd565b73ffffffffffffffffffffffffffffffffffffffff168273ffffffffffffffffffffffffffffffffffffffff16847f2f8788117e7eff1d82e926ec794901d17c78024a50270940304540a733656f0d60405160405180910390a4600190506119c7565b600090505b92915050565b600033905090565b60006119e18383611059565b15611abc57600080600085815260200190815260200160002060000160008473ffffffffffffffffffffffffffffffffffffffff1673ffffffffffffffffffffffffffffffffffffffff16815260200190815260200160002060006101000a81548160ff021916908315150217905550611a596119cd565b73ffffffffffffffffffffffffffffffffffffffff168273ffffffffffffffffffffffffffffffffffffffff16847ff6391f5c32d9c69d2a47ea670b442974b53935d1edc7fd64eb21e047a839171b60405160405180910390a460019050611ac1565b600090505b92915050565b611ad18282611059565b611b145780826040517fe2517d3f000000000000000000000000000000000000000000000000000000008152600401611b0b929190612aee565b60405180910390fd5b5050565b6000604051905090565b600080fd5b600080fd5b60007fffffffff0000000000000000000000000000000000000000000000000000000082169050919050565b611b6181611b2c565b8114611b6c57600080fd5b50565b600081359050611b7e81611b58565b92915050565b600060208284031215611b9a57611b99611b22565b5b6000611ba884828501611b6f565b91505092915050565b60008115159050919050565b611bc681611bb1565b82525050565b6000602082019050611be16000830184611bbd565b92915050565b6000819050919050565b611bfa81611be7565b82525050565b6000602082019050611c156000830184611bf1565b92915050565b6000819050919050565b611c2e81611c1b565b8114611c3957600080fd5b50565b600081359050611c4b81611c25565b92915050565b600060208284031215611c6757611c66611b22565b5b6000611c7584828501611c3c565b91505092915050565b611c8781611c1b565b82525050565b6000602082019050611ca26000830184611c7e565b92915050565b600073ffffffffffffffffffffffffffffffffffffffff82169050919050565b6000611cd382611ca8565b9050919050565b611ce381611cc8565b8114611cee57600080fd5b50565b600081359050611d0081611cda565b92915050565b60008060408385031215611d1d57611d1c611b22565b5b6000611d2b85828601611c3c565b9250506020611d3c85828601611cf1565b9150509250929050565b611d4f81611be7565b8114611d5a57600080fd5b50565b600081359050611d6c81611d46565b92915050565b600080fd5b600080fd5b6000601f19601f8301169050919050565b7f4e487b7100000000000000000000000000000000000000000000000000000000600052604160045260246000fd5b611dc582611d7c565b810181811067ffffffffffffffff82111715611de457611de3611d8d565b5b80604052505050565b6000611df7611b18565b9050611e038282611dbc565b919050565b600067ffffffffffffffff821115611e2357611e22611d8d565b5b611e2c82611d7c565b9050602081019050919050565b82818337600083830152505050565b6000611e5b611e5684611e08565b611ded565b905082815260208101848484011115611e7757611e76611d77565b5b611e82848285611e39565b509392505050565b600082601f830112611e9f57611e9e611d72565b5b8135611eaf848260208601611e48565b91505092915050565b60008060408385031215611ecf57611ece611b22565b5b6000611edd85828601611d5d565b925050602083013567ffffffffffffffff811115611efe57611efd611b27565b5b611f0a85828601611e8a565b9150509250929050565b600060208284031215611f2a57611f29611b22565b5b6000611f3884828501611d5d565b91505092915050565b60008060408385031215611f5857611f57611b22565b5b6000611f6685828601611d5d565b9250506020611f7785828601611d5d565b9150509250929050565b611f8a81611cc8565b82525050565b6000602082019050611fa56000830184611f81565b92915050565b600081519050919050565b600082825260208201905092915050565b6000819050602082019050919050565b600081519050919050565b600082825260208201905092915050565b60005b83811015612011578082015181840152602081019050611ff6565b60008484015250505050565b600061202882611fd7565b6120328185611fe2565b9350612042818560208601611ff3565b61204b81611d7c565b840191505092915050565b6000612062838361201d565b905092915050565b6000602082019050919050565b600061208282611fab565b61208c8185611fb6565b93508360208202850161209e85611fc7565b8060005b858110156120da57848403895281516120bb8582612056565b94506120c68361206a565b925060208a019950506001810190506120a2565b50829750879550505050505092915050565b600060208201905081810360008301526121068184612077565b905092915050565b60006020828403121561212457612123611b22565b5b600061213284828501611cf1565b91505092915050565b600082825260208201905092915050565b600061215782611fd7565b612161818561213b565b9350612171818560208601611ff3565b61217a81611d7c565b840191505092915050565b7f4e487b7100000000000000000000000000000000000000000000000000000000600052602160045260246000fd5b600381106121c5576121c4612185565b5b50565b60008190506121d6826121b4565b919050565b60006121e6826121c8565b9050919050565b6121f6816121db565b82525050565b600060e0820190508181036000830152612216818a61214c565b9050818103602083015261222a818961214c565b9050818103604083015261223e818861214c565b905061224d6060830187611bf1565b61225a6080830186611bf1565b61226760a0830185611bbd565b61227460c08301846121ed565b98975050505050505050565b600060c082019050818103600083015261229a818961214c565b905081810360208301526122ae818861214c565b905081810360408301526122c2818761214c565b90506122d16060830186611bf1565b6122de6080830185611bf1565b6122eb60a0830184611bbd565b979650505050505050565b600080600080608085870312156123105761230f611b22565b5b600085013567ffffffffffffffff81111561232e5761232d611b27565b5b61233a87828801611e8a565b945050602085013567ffffffffffffffff81111561235b5761235a611b27565b5b61236787828801611e8a565b935050604061237887828801611d5d565b925050606061238987828801611d5d565b91505092959194509250565b600081519050919050565b600082825260208201905092915050565b6000819050602082019050919050565b6123ca81611cc8565b82525050565b60006123dc83836123c1565b60208301905092915050565b6000602082019050919050565b600061240082612395565b61240a81856123a0565b9350612415836123b1565b8060005b8381101561244657815161242d88826123d0565b9750612438836123e8565b925050600181019050612419565b5085935050505092915050565b6000602082019050818103600083015261246d81846123f5565b905092915050565b7f53747564656e74206973206e6f7420656e726f6c6c656420696e20746869732060008201527f636f757273650000000000000000000000000000000000000000000000000000602082015250565b60006124d160268361213b565b91506124dc82612475565b604082019050919050565b60006020820190508181036000830152612500816124c4565b9050919050565b7f496e76616c696420636f75727365204944000000000000000000000000000000600082015250565b600061253d60118361213b565b915061254882612507565b602082019050919050565b6000602082019050818103600083015261256c81612530565b9050919050565b7f436f7572736520616c726561647920636f6d706c657465640000000000000000600082015250565b60006125a960188361213b565b91506125b482612573565b602082019050919050565b600060208201905081810360008301526125d88161259c565b9050919050565b600060208201905081810360008301526125f9818461214c565b905092915050565b7f4e487b7100000000000000000000000000000000000000000000000000000000600052601160045260246000fd5b600061263b82611be7565b915061264683611be7565b925082820190508082111561265e5761265d612601565b5b92915050565b60006060820190506126796000830186611f81565b6126866020830185611bf1565b6126936040830184611bf1565b949350505050565b7f53747564656e7420697320616c726561647920656e726f6c6c656420696e207460008201527f686520636f757273650000000000000000000000000000000000000000000000602082015250565b60006126f760298361213b565b91506127028261269b565b604082019050919050565b60006020820190508181036000830152612726816126ea565b9050919050565b7f496e76616c696420436f75727365204944000000000000000000000000000000600082015250565b600061276360118361213b565b915061276e8261272d565b602082019050919050565b6000602082019050818103600083015261279281612756565b9050919050565b60006127a482611be7565b91507fffffffffffffffffffffffffffffffffffffffffffffffffffffffffffffffff82036127d6576127d5612601565b5b600182019050919050565b7f4e487b7100000000000000000000000000000000000000000000000000000000600052603260045260246000fd5b7f4e487b7100000000000000000000000000000000000000000000000000000000600052602260045260246000fd5b6000600282049050600182168061285757607f821691505b60208210810361286a57612869612810565b5b50919050565b60008190508160005260206000209050919050565b60006020601f8301049050919050565b600082821b905092915050565b6000600883026128d27fffffffffffffffffffffffffffffffffffffffffffffffffffffffffffffffff82612895565b6128dc8683612895565b95508019841693508086168417925050509392505050565b6000819050919050565b600061291961291461290f84611be7565b6128f4565b611be7565b9050919050565b6000819050919050565b612933836128fe565b61294761293f82612920565b8484546128a2565b825550505050565b600090565b61295c61294f565b61296781848461292a565b505050565b5b8181101561298b57612980600082612954565b60018101905061296d565b5050565b601f8211156129d0576129a181612870565b6129aa84612885565b810160208510156129b9578190505b6129cd6129c585612885565b83018261296c565b50505b505050565b600082821c905092915050565b60006129f3600019846008026129d5565b1980831691505092915050565b6000612a0c83836129e2565b9150826002028217905092915050565b612a2582611fd7565b67ffffffffffffffff811115612a3e57612a3d611d8d565b5b612a48825461283f565b612a5382828561298f565b600060209050601f831160018114612a865760008415612a74578287015190505b612a7e8582612a00565b865550612ae6565b601f198416612a9486612870565b60005b82811015612abc57848901518255600182019150602085019450602081019050612a97565b86831015612ad95784890151612ad5601f8916826129e2565b8355505b6001600288020188555050505b505050505050565b6000604082019050612b036000830185611f81565b612b106020830184611c7e565b939250505056fea26469706673582212203d22995d05e49589e5591d830d40711e5f6f79bee3bc2f246d2e2f463627c81b64736f6c63430008140033",
  "linkReferences": {},
  "deployedLinkReferences": {}
}