{
  "_format": "hh-sol-artifact-1",
  "contractName": "EducationalPlatform",
  "sourceName": "contracts/Education.sol",
  "abi": [
    {
      "inputs": [],
      "stateMutability": "nonpayable",
      "type": "constructor"
    },
    {
      "inputs": [],
      "name": "AccessControlBadConfirmation",
      "type": "error"
    },
    {
      "inputs": [
        {
          "internalType": "address",
          "name": "account",
          "type": "address"
        },
        {
          "internalType": "bytes32",
          "name": "neededRole",
          "type": "bytes32"
        }
      ],
      "name": "AccessControlUnauthorizedAccount",
      "type": "error"
    },
    {
      "anonymous": false,
      "inputs": [
        {
          "indexed": true,
          "internalType": "address",
          "name": "student",
          "type": "address"
        },
        {
          "indexed": true,
          "internalType": "uint256",
          "name": "courseId",
          "type": "uint256"
        },
        {
          "indexed": false,
          "internalType": "string",
          "name": "assignmentURL",
          "type": "string"
        }
      ],
      "name": "AssignmentSubmitted",
      "type": "event"
    },
    {
      "anonymous": false,
      "inputs": [
        {
          "indexed": false,
          "internalType": "address",
          "name": "student",
          "type": "address"
        },
        {
          "indexed": false,
          "internalType": "uint256",
          "name": "courseId",
          "type": "uint256"
        },
        {
          "indexed": false,
          "internalType": "uint256",
          "name": "courseReward",
          "type": "uint256"
        }
      ],
      "name": "CourseCompleted",
      "type": "event"
    },
    {
      "anonymous": false,
      "inputs": [
        {
          "indexed": false,
          "internalType": "address",
          "name": "student",
          "type": "address"
        },
        {
          "indexed": false,
          "internalType": "uint256",
          "name": "courseId",
          "type": "uint256"
        },
        {
          "indexed": false,
          "internalType": "uint256",
          "name": "rewardEarned",
          "type": "uint256"
        }
      ],
      "name": "CourseEnrolled",
      "type": "event"
    },
    {
      "anonymous": false,
      "inputs": [
        {
          "indexed": true,
          "internalType": "uint256",
          "name": "courseId",
          "type": "uint256"
        },
        {
          "indexed": false,
          "internalType": "string",
          "name": "title",
          "type": "string"
        },
        {
          "indexed": false,
          "internalType": "string",
          "name": "courseURL",
          "type": "string"
        },
        {
          "indexed": false,
          "internalType": "string",
          "name": "submitLink",
          "type": "string"
        },
        {
          "indexed": false,
          "internalType": "uint256",
          "name": "credit",
          "type": "uint256"
        },
        {
          "indexed": false,
          "internalType": "uint256",
          "name": "reward",
          "type": "uint256"
        },
        {
          "indexed": false,
          "internalType": "bool",
          "name": "",
          "type": "bool"
        }
      ],
      "name": "CreateCourse",
      "type": "event"
    },
    {
      "anonymous": false,
      "inputs": [
        {
          "indexed": true,
          "internalType": "bytes32",
          "name": "role",
          "type": "bytes32"
        },
        {
          "indexed": true,
          "internalType": "bytes32",
          "name": "previousAdminRole",
          "type": "bytes32"
        },
        {
          "indexed": true,
          "internalType": "bytes32",
          "name": "newAdminRole",
          "type": "bytes32"
        }
      ],
      "name": "RoleAdminChanged",
      "type": "event"
    },
    {
      "anonymous": false,
      "inputs": [
        {
          "indexed": true,
          "internalType": "bytes32",
          "name": "role",
          "type": "bytes32"
        },
        {
          "indexed": true,
          "internalType": "address",
          "name": "account",
          "type": "address"
        },
        {
          "indexed": true,
          "internalType": "address",
          "name": "sender",
          "type": "address"
        }
      ],
      "name": "RoleGranted",
      "type": "event"
    },
    {
      "anonymous": false,
      "inputs": [
        {
          "indexed": true,
          "internalType": "bytes32",
          "name": "role",
          "type": "bytes32"
        },
        {
          "indexed": true,
          "internalType": "address",
          "name": "account",
          "type": "address"
        },
        {
          "indexed": true,
          "internalType": "address",
          "name": "sender",
          "type": "address"
        }
      ],
      "name": "RoleRevoked",
      "type": "event"
    },
    {
      "inputs": [],
      "name": "ADMIN_ROLE",
      "outputs": [
        {
          "internalType": "bytes32",
          "name": "",
          "type": "bytes32"
        }
      ],
      "stateMutability": "view",
      "type": "function"
    },
    {
      "inputs": [],
      "name": "DEFAULT_ADMIN_ROLE",
      "outputs": [
        {
          "internalType": "bytes32",
          "name": "",
          "type": "bytes32"
        }
      ],
      "stateMutability": "view",
      "type": "function"
    },
    {
      "inputs": [],
      "name": "STUDENT_ROLE",
      "outputs": [
        {
          "internalType": "bytes32",
          "name": "",
          "type": "bytes32"
        }
      ],
      "stateMutability": "view",
      "type": "function"
    },
    {
      "inputs": [
        {
          "internalType": "uint256",
          "name": "_courseId",
          "type": "uint256"
        }
      ],
      "name": "completedCourse",
      "outputs": [],
      "stateMutability": "nonpayable",
      "type": "function"
    },
    {
      "inputs": [
        {
          "internalType": "uint256",
          "name": "",
          "type": "uint256"
        },
        {
          "internalType": "uint256",
          "name": "",
          "type": "uint256"
        }
      ],
      "name": "courseEnrollments",
      "outputs": [
        {
          "internalType": "address",
          "name": "",
          "type": "address"
        }
      ],
      "stateMutability": "view",
      "type": "function"
    },
    {
      "inputs": [
        {
          "internalType": "uint256",
          "name": "",
          "type": "uint256"
        }
      ],
      "name": "courses",
      "outputs": [
        {
          "internalType": "string",
          "name": "title",
          "type": "string"
        },
        {
          "internalType": "string",
          "name": "courseURL",
          "type": "string"
        },
        {
          "internalType": "string",
          "name": "SubmitLink",
          "type": "string"
        },
        {
          "internalType": "uint256",
          "name": "rewards",
          "type": "uint256"
        },
        {
          "internalType": "uint256",
          "name": "credits",
          "type": "uint256"
        },
        {
          "internalType": "bool",
          "name": "isCompleted",
          "type": "bool"
        },
        {
          "internalType": "enum EducationalPlatform.EnrollStatus",
          "name": "enrollSatus",
          "type": "uint8"
        }
      ],
      "stateMutability": "view",
      "type": "function"
    },
    {
      "inputs": [
        {
          "internalType": "string",
          "name": "_title",
          "type": "string"
        },
        {
          "internalType": "string",
          "name": "_courseURL",
          "type": "string"
        },
        {
          "internalType": "uint256",
          "name": "_credits",
          "type": "uint256"
        },
        {
          "internalType": "uint256",
          "name": "_reward",
          "type": "uint256"
        }
      ],
      "name": "createCourse",
      "outputs": [],
      "stateMutability": "nonpayable",
      "type": "function"
    },
    {
      "inputs": [
        {
          "internalType": "uint256",
          "name": "_courseId",
          "type": "uint256"
        }
      ],
      "name": "enrollCourse",
      "outputs": [],
      "stateMutability": "nonpayable",
      "type": "function"
    },
    {
      "inputs": [
        {
          "internalType": "address",
          "name": "",
          "type": "address"
        }
      ],
      "name": "enrolledStudents",
      "outputs": [
        {
          "internalType": "bool",
          "name": "",
          "type": "bool"
        }
      ],
      "stateMutability": "view",
      "type": "function"
    },
    {
      "inputs": [
        {
          "internalType": "uint256",
          "name": "_courseId",
          "type": "uint256"
        }
      ],
      "name": "getCourseSubmissions",
      "outputs": [
        {
          "internalType": "string[]",
          "name": "",
          "type": "string[]"
        }
      ],
      "stateMutability": "view",
      "type": "function"
    },
    {
      "inputs": [
        {
          "internalType": "uint256",
          "name": "_index",
          "type": "uint256"
        }
      ],
      "name": "getCoursesDetails",
      "outputs": [
        {
          "internalType": "string",
          "name": "",
          "type": "string"
        },
        {
          "internalType": "string",
          "name": "",
          "type": "string"
        },
        {
          "internalType": "string",
          "name": "",
          "type": "string"
        },
        {
          "internalType": "uint256",
          "name": "",
          "type": "uint256"
        },
        {
          "internalType": "uint256",
          "name": "",
          "type": "uint256"
        },
        {
          "internalType": "bool",
          "name": "",
          "type": "bool"
        }
      ],
      "stateMutability": "view",
      "type": "function"
    },
    {
      "inputs": [
        {
          "internalType": "uint256",
          "name": "_courseId",
          "type": "uint256"
        }
      ],
      "name": "getEnrolledStudentsForCourse",
      "outputs": [
        {
          "internalType": "address[]",
          "name": "",
          "type": "address[]"
        }
      ],
      "stateMutability": "view",
      "type": "function"
    },
    {
      "inputs": [
        {
          "internalType": "uint256",
          "name": "_index",
          "type": "uint256"
        }
      ],
      "name": "getFCoursesDetails",
      "outputs": [
        {
          "internalType": "string",
          "name": "",
          "type": "string"
        },
        {
          "internalType": "string",
          "name": "",
          "type": "string"
        },
        {
          "internalType": "string",
          "name": "",
          "type": "string"
        },
        {
          "internalType": "uint256",
          "name": "",
          "type": "uint256"
        },
        {
          "internalType": "uint256",
          "name": "",
          "type": "uint256"
        },
        {
          "internalType": "bool",
          "name": "",
          "type": "bool"
        },
        {
          "internalType": "enum EducationalPlatform.EnrollStatus",
          "name": "",
          "type": "uint8"
        },
        {
          "components": [
            {
              "internalType": "address",
              "name": "studentAddress",
              "type": "address"
            },
            {
              "internalType": "string",
              "name": "submissionLink",
              "type": "string"
            }
          ],
          "internalType": "struct EducationalPlatform.Submission[]",
          "name": "",
          "type": "tuple[]"
        }
      ],
      "stateMutability": "view",
      "type": "function"
    },
    {
      "inputs": [
        {
          "internalType": "bytes32",
          "name": "role",
          "type": "bytes32"
        }
      ],
      "name": "getRoleAdmin",
      "outputs": [
        {
          "internalType": "bytes32",
          "name": "",
          "type": "bytes32"
        }
      ],
      "stateMutability": "view",
      "type": "function"
    },
    {
      "inputs": [],
      "name": "getStudentCredits",
      "outputs": [
        {
          "internalType": "uint256",
          "name": "",
          "type": "uint256"
        }
      ],
      "stateMutability": "view",
      "type": "function"
    },
    {
      "inputs": [
        {
          "internalType": "bytes32",
          "name": "role",
          "type": "bytes32"
        },
        {
          "internalType": "address",
          "name": "account",
          "type": "address"
        }
      ],
      "name": "grantRole",
      "outputs": [],
      "stateMutability": "nonpayable",
      "type": "function"
    },
    {
      "inputs": [
        {
          "internalType": "bytes32",
          "name": "role",
          "type": "bytes32"
        },
        {
          "internalType": "address",
          "name": "account",
          "type": "address"
        }
      ],
      "name": "hasRole",
      "outputs": [
        {
          "internalType": "bool",
          "name": "",
          "type": "bool"
        }
      ],
      "stateMutability": "view",
      "type": "function"
    },
    {
      "inputs": [],
      "name": "owner",
      "outputs": [
        {
          "internalType": "address",
          "name": "",
          "type": "address"
        }
      ],
      "stateMutability": "view",
      "type": "function"
    },
    {
      "inputs": [
        {
          "internalType": "bytes32",
          "name": "role",
          "type": "bytes32"
        },
        {
          "internalType": "address",
          "name": "callerConfirmation",
          "type": "address"
        }
      ],
      "name": "renounceRole",
      "outputs": [],
      "stateMutability": "nonpayable",
      "type": "function"
    },
    {
      "inputs": [
        {
          "internalType": "bytes32",
          "name": "role",
          "type": "bytes32"
        },
        {
          "internalType": "address",
          "name": "account",
          "type": "address"
        }
      ],
      "name": "revokeRole",
      "outputs": [],
      "stateMutability": "nonpayable",
      "type": "function"
    },
    {
      "inputs": [
        {
          "internalType": "address",
          "name": "",
          "type": "address"
        }
      ],
      "name": "studentRewards",
      "outputs": [
        {
          "internalType": "uint256",
          "name": "",
          "type": "uint256"
        }
      ],
      "stateMutability": "view",
      "type": "function"
    },
    {
      "inputs": [
        {
          "internalType": "uint256",
          "name": "_courseId",
          "type": "uint256"
        },
        {
          "internalType": "string",
          "name": "_assignmentURL",
          "type": "string"
        }
      ],
      "name": "submitAssignments",
      "outputs": [],
      "stateMutability": "nonpayable",
      "type": "function"
    },
    {
      "inputs": [
        {
          "internalType": "bytes4",
          "name": "interfaceId",
          "type": "bytes4"
        }
      ],
      "name": "supportsInterface",
      "outputs": [
        {
          "internalType": "bool",
          "name": "",
          "type": "bool"
        }
      ],
      "stateMutability": "view",
      "type": "function"
    },
    {
      "inputs": [],
      "name": "totalCourses",
      "outputs": [
        {
          "internalType": "uint256",
          "name": "",
          "type": "uint256"
        }
      ],
      "stateMutability": "view",
      "type": "function"
    },
    {
      "inputs": [],
      "name": "totalStudents",
      "outputs": [
        {
          "internalType": "uint256",
          "name": "",
          "type": "uint256"
        }
      ],
      "stateMutability": "view",
      "type": "function"
    }
  ],
  "bytecode": "0x60806040523480156200001157600080fd5b50620000477f36a5c4aaacb6b388bbd448bf11096b7dafc5652bcc9046084fd0e95b1fb0b2cc6000801b6200008060201b60201c565b620000797fa49807205ce4d355092ef5a8a18f56e8913cf4a201fbe287825b095693c2177533620000e360201b60201c565b5062000277565b60006200009383620001e660201b60201c565b905081600080858152602001908152602001600020600101819055508181847fbd79b86ffe0ab8e8776151514217cd7cacd52c909f66475c3af44e129f0b00ff60405160405180910390a4505050565b6000620000f783836200020560201b60201c565b620001db57600160008085815260200190815260200160002060000160008473ffffffffffffffffffffffffffffffffffffffff1673ffffffffffffffffffffffffffffffffffffffff16815260200190815260200160002060006101000a81548160ff021916908315150217905550620001776200026f60201b60201c565b73ffffffffffffffffffffffffffffffffffffffff168273ffffffffffffffffffffffffffffffffffffffff16847f2f8788117e7eff1d82e926ec794901d17c78024a50270940304540a733656f0d60405160405180910390a460019050620001e0565b600090505b92915050565b6000806000838152602001908152602001600020600101549050919050565b600080600084815260200190815260200160002060000160008373ffffffffffffffffffffffffffffffffffffffff1673ffffffffffffffffffffffffffffffffffffffff16815260200190815260200160002060009054906101000a900460ff16905092915050565b600033905090565b612fcd80620002876000396000f3fe608060405234801561001057600080fd5b50600436106101735760003560e01c806375b238fc116100de578063a0ee1eae11610097578063d547741f11610071578063d547741f146104aa578063d63d8385146104c6578063e332addf146104f6578063f7be43fb1461051257610173565b8063a0ee1eae1461043b578063a217fddf14610470578063d4c4ecfa1461048e57610173565b806375b238fc1461035d57806387ac18601461037b5780638da5cb5b1461039957806391d14854146103b757806396f979d2146103e75780639852bf8e1461041d57610173565b80633be719c1116101305780633be719c11461024a5780633dbd0e0c1461027a57806344798353146102965780635c9a9ce5146102cd57806369154310146102fd578063729d1dcb1461032d57610173565b806301ffc9a7146101785780630a8be7de146101a8578063248a9ca3146101c65780632f2ff15d146101f657806336568abe146102125780633a0b50a21461022e575b600080fd5b610192600480360381019061018d9190611e6b565b610530565b60405161019f9190611eb3565b60405180910390f35b6101b06105aa565b6040516101bd9190611ee7565b60405180910390f35b6101e060048036038101906101db9190611f38565b6105f1565b6040516101ed9190611f74565b60405180910390f35b610210600480360381019061020b9190611fed565b610610565b005b61022c60048036038101906102279190611fed565b610632565b005b61024860048036038101906102439190612059565b6106ad565b005b610264600480360381019061025f9190612086565b6108c1565b60405161027191906120d5565b60405180910390f35b610294600480360381019061028f9190612059565b61090f565b005b6102b060048036038101906102ab9190612059565b610b75565b6040516102c498979695949392919061234f565b60405180910390f35b6102e760048036038101906102e29190612059565b610fa5565b6040516102f491906124ab565b60405180910390f35b610317600480360381019061031291906124cd565b611288565b6040516103249190611ee7565b60405180910390f35b610347600480360381019061034291906124cd565b6112a0565b6040516103549190611eb3565b60405180910390f35b6103656112c0565b6040516103729190611f74565b60405180910390f35b6103836112e4565b6040516103909190611ee7565b60405180910390f35b6103a16112ea565b6040516103ae91906120d5565b60405180910390f35b6103d160048036038101906103cc9190611fed565b611310565b6040516103de9190611eb3565b60405180910390f35b61040160048036038101906103fc9190612059565b61137a565b60405161041497969594939291906124fa565b60405180910390f35b61042561156e565b6040516104329190611ee7565b60405180910390f35b61045560048036038101906104509190612059565b611574565b6040516104679695949392919061257e565b60405180910390f35b610478611776565b6040516104859190611f74565b60405180910390f35b6104a860048036038101906104a39190612729565b61177d565b005b6104c460048036038101906104bf9190611fed565b611845565b005b6104e060048036038101906104db9190612059565b611867565b6040516104ed9190612877565b60405180910390f35b610510600480360381019061050b9190612899565b611908565b005b61051a611af1565b6040516105279190611f74565b60405180910390f35b60007f7965db0b000000000000000000000000000000000000000000000000000000007bffffffffffffffffffffffffffffffffffffffffffffffffffffffff1916827bffffffffffffffffffffffffffffffffffffffffffffffffffffffff191614806105a357506105a282611b15565b5b9050919050565b6000600460003373ffffffffffffffffffffffffffffffffffffffff1673ffffffffffffffffffffffffffffffffffffffff16815260200190815260200160002054905090565b6000806000838152602001908152602001600020600101549050919050565b610619826105f1565b61062281611b7f565b61062c8383611b93565b50505050565b61063a611c84565b73ffffffffffffffffffffffffffffffffffffffff168173ffffffffffffffffffffffffffffffffffffffff161461069e576040517f6697b23200000000000000000000000000000000000000000000000000000000815260040160405180910390fd5b6106a88282611c8c565b505050565b600560003373ffffffffffffffffffffffffffffffffffffffff1673ffffffffffffffffffffffffffffffffffffffff16815260200190815260200160002060009054906101000a900460ff16610739576040517f08c379a000000000000000000000000000000000000000000000000000000000815260040161073090612967565b60405180910390fd5b60025481111561077e576040517f08c379a0000000000000000000000000000000000000000000000000000000008152600401610775906129d3565b60405180910390fd5b6006600082815260200190815260200160002060050160009054906101000a900460ff16156107e2576040517f08c379a00000000000000000000000000000000000000000000000000000000081526004016107d990612a3f565b60405180910390fd5b60006006600083815260200190815260200160002060030154905080600460003373ffffffffffffffffffffffffffffffffffffffff1673ffffffffffffffffffffffffffffffffffffffff168152602001908152602001600020600082825461084c9190612a8e565b9250508190555060016006600084815260200190815260200160002060050160006101000a81548160ff0219169083151502179055507f69598479254610bc37273ec300171cd231505beb1ee68d360cbd78c1bd8182783383836040516108b593929190612ac2565b60405180910390a15050565b600760205281600052604060002081815481106108dd57600080fd5b906000526020600020016000915091509054906101000a900473ffffffffffffffffffffffffffffffffffffffff1681565b600560003373ffffffffffffffffffffffffffffffffffffffff1673ffffffffffffffffffffffffffffffffffffffff16815260200190815260200160002060009054906101000a900460ff161561099c576040517f08c379a000000000000000000000000000000000000000000000000000000000815260040161099390612b6b565b60405180910390fd5b6002548111156109e1576040517f08c379a00000000000000000000000000000000000000000000000000000000081526004016109d890612bd7565b60405180910390fd5b6001600560003373ffffffffffffffffffffffffffffffffffffffff1673ffffffffffffffffffffffffffffffffffffffff16815260200190815260200160002060006101000a81548160ff02191690831515021790555060036000815480929190610a4c90612bf7565b919050555060006006600083815260200190815260200160002060040154905080600460003373ffffffffffffffffffffffffffffffffffffffff1673ffffffffffffffffffffffffffffffffffffffff1681526020019081526020016000206000828254610abb9190612a8e565b9250508190555060076000838152602001908152602001600020339080600181540180825580915050600190039060005260206000200160009091909190916101000a81548173ffffffffffffffffffffffffffffffffffffffff021916908373ffffffffffffffffffffffffffffffffffffffff1602179055507fb975c93c50aa94d9c86dd9fb379701dc0bdc2aa1c503bf46d9cf4f313e0f47fc338383604051610b6993929190612ac2565b60405180910390a15050565b606080606060008060008060606000600660008b815260200190815260200160002090506000600760008c81526020019081526020016000208054905067ffffffffffffffff811115610bcb57610bca6125fe565b5b604051908082528060200260200182016040528015610c0457816020015b610bf1611dcf565b815260200190600190039081610be95790505b50905060005b600760008d815260200190815260200160002080549050811015610da8576000600760008e81526020019081526020016000208281548110610c4f57610c4e612c3f565b5b9060005260206000200160009054906101000a900473ffffffffffffffffffffffffffffffffffffffff16905060008460060160008373ffffffffffffffffffffffffffffffffffffffff1673ffffffffffffffffffffffffffffffffffffffff1681526020019081526020016000208054610cca90612c9d565b80601f0160208091040260200160405190810160405280929190818152602001828054610cf690612c9d565b8015610d435780601f10610d1857610100808354040283529160200191610d43565b820191906000526020600020905b815481529060010190602001808311610d2657829003601f168201915b5050505050905060405180604001604052808373ffffffffffffffffffffffffffffffffffffffff16815260200182815250848481518110610d8857610d87612c3f565b5b602002602001018190525050508080610da090612bf7565b915050610c0a565b50816000018260010183600201846003015485600401548660050160009054906101000a900460ff168760050160019054906101000a900460ff1687878054610df090612c9d565b80601f0160208091040260200160405190810160405280929190818152602001828054610e1c90612c9d565b8015610e695780601f10610e3e57610100808354040283529160200191610e69565b820191906000526020600020905b815481529060010190602001808311610e4c57829003601f168201915b50505050509750868054610e7c90612c9d565b80601f0160208091040260200160405190810160405280929190818152602001828054610ea890612c9d565b8015610ef55780601f10610eca57610100808354040283529160200191610ef5565b820191906000526020600020905b815481529060010190602001808311610ed857829003601f168201915b50505050509650858054610f0890612c9d565b80601f0160208091040260200160405190810160405280929190818152602001828054610f3490612c9d565b8015610f815780601f10610f5657610100808354040283529160200191610f81565b820191906000526020600020905b815481529060010190602001808311610f6457829003601f168201915b50505050509550995099509950995099509950995099505050919395975091939597565b6060600254821115610fec576040517f08c379a0000000000000000000000000000000000000000000000000000000008152600401610fe3906129d3565b60405180910390fd5b600060066000848152602001908152602001600020905060006007600085815260200190815260200160002080548060200260200160405190810160405280929190818152602001828054801561109857602002820191906000526020600020905b8160009054906101000a900473ffffffffffffffffffffffffffffffffffffffff1673ffffffffffffffffffffffffffffffffffffffff168152602001906001019080831161104e575b505050505090506000815167ffffffffffffffff8111156110bc576110bb6125fe565b5b6040519080825280602002602001820160405280156110ef57816020015b60608152602001906001900390816110da5790505b50905060005b825181101561127c57600084600601600085848151811061111957611118612c3f565b5b602002602001015173ffffffffffffffffffffffffffffffffffffffff1673ffffffffffffffffffffffffffffffffffffffff168152602001908152602001600020805461116690612c9d565b80601f016020809104026020016040519081016040528092919081815260200182805461119290612c9d565b80156111df5780601f106111b4576101008083540402835291602001916111df565b820191906000526020600020905b8154815290600101906020018083116111c257829003601f168201915b505050505090506000815103611248576040518060400160405280600d81526020017f4e6f207375626d697373696f6e0000000000000000000000000000000000000081525083838151811061123857611237612c3f565b5b6020026020010181905250611268565b8083838151811061125c5761125b612c3f565b5b60200260200101819052505b50808061127490612bf7565b9150506110f5565b50809350505050919050565b60046020528060005260406000206000915090505481565b60056020528060005260406000206000915054906101000a900460ff1681565b7fa49807205ce4d355092ef5a8a18f56e8913cf4a201fbe287825b095693c2177581565b60025481565b600160009054906101000a900473ffffffffffffffffffffffffffffffffffffffff1681565b600080600084815260200190815260200160002060000160008373ffffffffffffffffffffffffffffffffffffffff1673ffffffffffffffffffffffffffffffffffffffff16815260200190815260200160002060009054906101000a900460ff16905092915050565b600660205280600052604060002060009150905080600001805461139d90612c9d565b80601f01602080910402602001604051908101604052809291908181526020018280546113c990612c9d565b80156114165780601f106113eb57610100808354040283529160200191611416565b820191906000526020600020905b8154815290600101906020018083116113f957829003601f168201915b50505050509080600101805461142b90612c9d565b80601f016020809104026020016040519081016040528092919081815260200182805461145790612c9d565b80156114a45780601f10611479576101008083540402835291602001916114a4565b820191906000526020600020905b81548152906001019060200180831161148757829003601f168201915b5050505050908060020180546114b990612c9d565b80601f01602080910402602001604051908101604052809291908181526020018280546114e590612c9d565b80156115325780601f1061150757610100808354040283529160200191611532565b820191906000526020600020905b81548152906001019060200180831161151557829003601f168201915b5050505050908060030154908060040154908060050160009054906101000a900460ff16908060050160019054906101000a900460ff16905087565b60035481565b6060806060600080600080600660008981526020019081526020016000209050806000018160010182600201836003015484600401548560050160009054906101000a900460ff168580546115c890612c9d565b80601f01602080910402602001604051908101604052809291908181526020018280546115f490612c9d565b80156116415780601f1061161657610100808354040283529160200191611641565b820191906000526020600020905b81548152906001019060200180831161162457829003601f168201915b5050505050955084805461165490612c9d565b80601f016020809104026020016040519081016040528092919081815260200182805461168090612c9d565b80156116cd5780601f106116a2576101008083540402835291602001916116cd565b820191906000526020600020905b8154815290600101906020018083116116b057829003601f168201915b505050505094508380546116e090612c9d565b80601f016020809104026020016040519081016040528092919081815260200182805461170c90612c9d565b80156117595780601f1061172e57610100808354040283529160200191611759565b820191906000526020600020905b81548152906001019060200180831161173c57829003601f168201915b505050505093509650965096509650965096505091939550919395565b6000801b81565b600060405180602001604052806000815250905060006006600060025481526020019081526020016000209050848160010190816117bb9190612e7a565b50858160000190816117cd9190612e7a565b50838160040181905550828160030181905550600260008154809291906117f390612bf7565b91905055506002547fd3b22a39dead2483ee2d3a077af93e2acd13b13a60009d178b4df37d09a27a3f878785888860006040516118359695949392919061257e565b60405180910390a2505050505050565b61184e826105f1565b61185781611b7f565b6118618383611c8c565b50505050565b6060600760008381526020019081526020016000208054806020026020016040519081016040528092919081815260200182805480156118fc57602002820191906000526020600020905b8160009054906101000a900473ffffffffffffffffffffffffffffffffffffffff1673ffffffffffffffffffffffffffffffffffffffff16815260200190600101908083116118b2575b50505050509050919050565b600560003373ffffffffffffffffffffffffffffffffffffffff1673ffffffffffffffffffffffffffffffffffffffff16815260200190815260200160002060009054906101000a900460ff16611994576040517f08c379a000000000000000000000000000000000000000000000000000000000815260040161198b90612967565b60405180910390fd5b6002548211156119d9576040517f08c379a00000000000000000000000000000000000000000000000000000000081526004016119d0906129d3565b60405180910390fd5b6006600083815260200190815260200160002060050160009054906101000a900460ff1615611a3d576040517f08c379a0000000000000000000000000000000000000000000000000000000008152600401611a3490612a3f565b60405180910390fd5b806006600084815260200190815260200160002060060160003373ffffffffffffffffffffffffffffffffffffffff1673ffffffffffffffffffffffffffffffffffffffff1681526020019081526020016000209081611a9d9190612e7a565b50813373ffffffffffffffffffffffffffffffffffffffff167fe833507235e60a3e7412a6c4162edce38118df58ebb6e26b3f03196a558ba2bf83604051611ae59190612f4c565b60405180910390a35050565b7f36a5c4aaacb6b388bbd448bf11096b7dafc5652bcc9046084fd0e95b1fb0b2cc81565b60007f01ffc9a7000000000000000000000000000000000000000000000000000000007bffffffffffffffffffffffffffffffffffffffffffffffffffffffff1916827bffffffffffffffffffffffffffffffffffffffffffffffffffffffff1916149050919050565b611b9081611b8b611c84565b611d7e565b50565b6000611b9f8383611310565b611c7957600160008085815260200190815260200160002060000160008473ffffffffffffffffffffffffffffffffffffffff1673ffffffffffffffffffffffffffffffffffffffff16815260200190815260200160002060006101000a81548160ff021916908315150217905550611c16611c84565b73ffffffffffffffffffffffffffffffffffffffff168273ffffffffffffffffffffffffffffffffffffffff16847f2f8788117e7eff1d82e926ec794901d17c78024a50270940304540a733656f0d60405160405180910390a460019050611c7e565b600090505b92915050565b600033905090565b6000611c988383611310565b15611d7357600080600085815260200190815260200160002060000160008473ffffffffffffffffffffffffffffffffffffffff1673ffffffffffffffffffffffffffffffffffffffff16815260200190815260200160002060006101000a81548160ff021916908315150217905550611d10611c84565b73ffffffffffffffffffffffffffffffffffffffff168273ffffffffffffffffffffffffffffffffffffffff16847ff6391f5c32d9c69d2a47ea670b442974b53935d1edc7fd64eb21e047a839171b60405160405180910390a460019050611d78565b600090505b92915050565b611d888282611310565b611dcb5780826040517fe2517d3f000000000000000000000000000000000000000000000000000000008152600401611dc2929190612f6e565b60405180910390fd5b5050565b6040518060400160405280600073ffffffffffffffffffffffffffffffffffffffff168152602001606081525090565b6000604051905090565b600080fd5b600080fd5b60007fffffffff0000000000000000000000000000000000000000000000000000000082169050919050565b611e4881611e13565b8114611e5357600080fd5b50565b600081359050611e6581611e3f565b92915050565b600060208284031215611e8157611e80611e09565b5b6000611e8f84828501611e56565b91505092915050565b60008115159050919050565b611ead81611e98565b82525050565b6000602082019050611ec86000830184611ea4565b92915050565b6000819050919050565b611ee181611ece565b82525050565b6000602082019050611efc6000830184611ed8565b92915050565b6000819050919050565b611f1581611f02565b8114611f2057600080fd5b50565b600081359050611f3281611f0c565b92915050565b600060208284031215611f4e57611f4d611e09565b5b6000611f5c84828501611f23565b91505092915050565b611f6e81611f02565b82525050565b6000602082019050611f896000830184611f65565b92915050565b600073ffffffffffffffffffffffffffffffffffffffff82169050919050565b6000611fba82611f8f565b9050919050565b611fca81611faf565b8114611fd557600080fd5b50565b600081359050611fe781611fc1565b92915050565b6000806040838503121561200457612003611e09565b5b600061201285828601611f23565b925050602061202385828601611fd8565b9150509250929050565b61203681611ece565b811461204157600080fd5b50565b6000813590506120538161202d565b92915050565b60006020828403121561206f5761206e611e09565b5b600061207d84828501612044565b91505092915050565b6000806040838503121561209d5761209c611e09565b5b60006120ab85828601612044565b92505060206120bc85828601612044565b9150509250929050565b6120cf81611faf565b82525050565b60006020820190506120ea60008301846120c6565b92915050565b600081519050919050565b600082825260208201905092915050565b60005b8381101561212a57808201518184015260208101905061210f565b60008484015250505050565b6000601f19601f8301169050919050565b6000612152826120f0565b61215c81856120fb565b935061216c81856020860161210c565b61217581612136565b840191505092915050565b7f4e487b7100000000000000000000000000000000000000000000000000000000600052602160045260246000fd5b600381106121c0576121bf612180565b5b50565b60008190506121d1826121af565b919050565b60006121e1826121c3565b9050919050565b6121f1816121d6565b82525050565b600081519050919050565b600082825260208201905092915050565b6000819050602082019050919050565b61222c81611faf565b82525050565b600082825260208201905092915050565b600061224e826120f0565b6122588185612232565b935061226881856020860161210c565b61227181612136565b840191505092915050565b60006040830160008301516122946000860182612223565b50602083015184820360208601526122ac8282612243565b9150508091505092915050565b60006122c5838361227c565b905092915050565b6000602082019050919050565b60006122e5826121f7565b6122ef8185612202565b93508360208202850161230185612213565b8060005b8581101561233d578484038952815161231e85826122b9565b9450612329836122cd565b925060208a01995050600181019050612305565b50829750879550505050505092915050565b600061010082019050818103600083015261236a818b612147565b9050818103602083015261237e818a612147565b905081810360408301526123928189612147565b90506123a16060830188611ed8565b6123ae6080830187611ed8565b6123bb60a0830186611ea4565b6123c860c08301856121e8565b81810360e08301526123da81846122da565b90509998505050505050505050565b600081519050919050565b600082825260208201905092915050565b6000819050602082019050919050565b60006124218383612243565b905092915050565b6000602082019050919050565b6000612441826123e9565b61244b81856123f4565b93508360208202850161245d85612405565b8060005b85811015612499578484038952815161247a8582612415565b945061248583612429565b925060208a01995050600181019050612461565b50829750879550505050505092915050565b600060208201905081810360008301526124c58184612436565b905092915050565b6000602082840312156124e3576124e2611e09565b5b60006124f184828501611fd8565b91505092915050565b600060e0820190508181036000830152612514818a612147565b905081810360208301526125288189612147565b9050818103604083015261253c8188612147565b905061254b6060830187611ed8565b6125586080830186611ed8565b61256560a0830185611ea4565b61257260c08301846121e8565b98975050505050505050565b600060c08201905081810360008301526125988189612147565b905081810360208301526125ac8188612147565b905081810360408301526125c08187612147565b90506125cf6060830186611ed8565b6125dc6080830185611ed8565b6125e960a0830184611ea4565b979650505050505050565b600080fd5b600080fd5b7f4e487b7100000000000000000000000000000000000000000000000000000000600052604160045260246000fd5b61263682612136565b810181811067ffffffffffffffff82111715612655576126546125fe565b5b80604052505050565b6000612668611dff565b9050612674828261262d565b919050565b600067ffffffffffffffff821115612694576126936125fe565b5b61269d82612136565b9050602081019050919050565b82818337600083830152505050565b60006126cc6126c784612679565b61265e565b9050828152602081018484840111156126e8576126e76125f9565b5b6126f38482856126aa565b509392505050565b600082601f8301126127105761270f6125f4565b5b81356127208482602086016126b9565b91505092915050565b6000806000806080858703121561274357612742611e09565b5b600085013567ffffffffffffffff81111561276157612760611e0e565b5b61276d878288016126fb565b945050602085013567ffffffffffffffff81111561278e5761278d611e0e565b5b61279a878288016126fb565b93505060406127ab87828801612044565b92505060606127bc87828801612044565b91505092959194509250565b600081519050919050565b600082825260208201905092915050565b6000819050602082019050919050565b60006128008383612223565b60208301905092915050565b6000602082019050919050565b6000612824826127c8565b61282e81856127d3565b9350612839836127e4565b8060005b8381101561286a57815161285188826127f4565b975061285c8361280c565b92505060018101905061283d565b5085935050505092915050565b600060208201905081810360008301526128918184612819565b905092915050565b600080604083850312156128b0576128af611e09565b5b60006128be85828601612044565b925050602083013567ffffffffffffffff8111156128df576128de611e0e565b5b6128eb858286016126fb565b9150509250929050565b7f53747564656e74206973206e6f7420656e726f6c6c656420696e20746869732060008201527f636f757273650000000000000000000000000000000000000000000000000000602082015250565b60006129516026836120fb565b915061295c826128f5565b604082019050919050565b6000602082019050818103600083015261298081612944565b9050919050565b7f496e76616c696420636f75727365204944000000000000000000000000000000600082015250565b60006129bd6011836120fb565b91506129c882612987565b602082019050919050565b600060208201905081810360008301526129ec816129b0565b9050919050565b7f436f7572736520616c726561647920636f6d706c657465640000000000000000600082015250565b6000612a296018836120fb565b9150612a34826129f3565b602082019050919050565b60006020820190508181036000830152612a5881612a1c565b9050919050565b7f4e487b7100000000000000000000000000000000000000000000000000000000600052601160045260246000fd5b6000612a9982611ece565b9150612aa483611ece565b9250828201905080821115612abc57612abb612a5f565b5b92915050565b6000606082019050612ad760008301866120c6565b612ae46020830185611ed8565b612af16040830184611ed8565b949350505050565b7f53747564656e7420697320616c726561647920656e726f6c6c656420696e207460008201527f686520636f757273650000000000000000000000000000000000000000000000602082015250565b6000612b556029836120fb565b9150612b6082612af9565b604082019050919050565b60006020820190508181036000830152612b8481612b48565b9050919050565b7f496e76616c696420436f75727365204944000000000000000000000000000000600082015250565b6000612bc16011836120fb565b9150612bcc82612b8b565b602082019050919050565b60006020820190508181036000830152612bf081612bb4565b9050919050565b6000612c0282611ece565b91507fffffffffffffffffffffffffffffffffffffffffffffffffffffffffffffffff8203612c3457612c33612a5f565b5b600182019050919050565b7f4e487b7100000000000000000000000000000000000000000000000000000000600052603260045260246000fd5b7f4e487b7100000000000000000000000000000000000000000000000000000000600052602260045260246000fd5b60006002820490506001821680612cb557607f821691505b602082108103612cc857612cc7612c6e565b5b50919050565b60008190508160005260206000209050919050565b60006020601f8301049050919050565b600082821b905092915050565b600060088302612d307fffffffffffffffffffffffffffffffffffffffffffffffffffffffffffffffff82612cf3565b612d3a8683612cf3565b95508019841693508086168417925050509392505050565b6000819050919050565b6000612d77612d72612d6d84611ece565b612d52565b611ece565b9050919050565b6000819050919050565b612d9183612d5c565b612da5612d9d82612d7e565b848454612d00565b825550505050565b600090565b612dba612dad565b612dc5818484612d88565b505050565b5b81811015612de957612dde600082612db2565b600181019050612dcb565b5050565b601f821115612e2e57612dff81612cce565b612e0884612ce3565b81016020851015612e17578190505b612e2b612e2385612ce3565b830182612dca565b50505b505050565b600082821c905092915050565b6000612e5160001984600802612e33565b1980831691505092915050565b6000612e6a8383612e40565b9150826002028217905092915050565b612e83826120f0565b67ffffffffffffffff811115612e9c57612e9b6125fe565b5b612ea68254612c9d565b612eb1828285612ded565b600060209050601f831160018114612ee45760008415612ed2578287015190505b612edc8582612e5e565b865550612f44565b601f198416612ef286612cce565b60005b82811015612f1a57848901518255600182019150602085019450602081019050612ef5565b86831015612f375784890151612f33601f891682612e40565b8355505b6001600288020188555050505b505050505050565b60006020820190508181036000830152612f668184612147565b905092915050565b6000604082019050612f8360008301856120c6565b612f906020830184611f65565b939250505056fea2646970667358221220a8433e40d7e69033dac6e0c682d46835796b93b4389a2b7b8f891c151e9434bb64736f6c63430008140033",
  "linkReferences": {},
  "deployedLinkReferences": {}
}